{"abi":[{"type":"constructor","inputs":[{"name":"_goal","type":"uint256","internalType":"uint256"},{"name":"_duration","type":"uint256","internalType":"uint256"}],"stateMutability":"nonpayable"},{"type":"function","name":"contribute","inputs":[],"outputs":[],"stateMutability":"payable"},{"type":"function","name":"contributions","inputs":[{"name":"","type":"address","internalType":"address"}],"outputs":[{"name":"","type":"uint256","internalType":"uint256"}],"stateMutability":"view"},{"type":"function","name":"deadline","inputs":[],"outputs":[{"name":"","type":"uint256","internalType":"uint256"}],"stateMutability":"view"},{"type":"function","name":"fundsRaised","inputs":[],"outputs":[{"name":"","type":"uint256","internalType":"uint256"}],"stateMutability":"view"},{"type":"function","name":"getRefund","inputs":[],"outputs":[],"stateMutability":"nonpayable"},{"type":"function","name":"goal","inputs":[],"outputs":[{"name":"","type":"uint256","internalType":"uint256"}],"stateMutability":"view"},{"type":"function","name":"owner","inputs":[],"outputs":[{"name":"","type":"address","internalType":"address"}],"stateMutability":"view"},{"type":"function","name":"pause","inputs":[],"outputs":[],"stateMutability":"nonpayable"},{"type":"function","name":"paused","inputs":[],"outputs":[{"name":"","type":"bool","internalType":"bool"}],"stateMutability":"view"},{"type":"function","name":"renounceOwnership","inputs":[],"outputs":[],"stateMutability":"nonpayable"},{"type":"function","name":"transferOwnership","inputs":[{"name":"newOwner","type":"address","internalType":"address"}],"outputs":[],"stateMutability":"nonpayable"},{"type":"function","name":"unpause","inputs":[],"outputs":[],"stateMutability":"nonpayable"},{"type":"function","name":"withdrawFunds","inputs":[],"outputs":[],"stateMutability":"nonpayable"},{"type":"event","name":"ContributionReceived","inputs":[{"name":"contributor","type":"address","indexed":true,"internalType":"address"},{"name":"amount","type":"uint256","indexed":false,"internalType":"uint256"}],"anonymous":false},{"type":"event","name":"FundsWithdrawn","inputs":[{"name":"owner","type":"address","indexed":true,"internalType":"address"},{"name":"amount","type":"uint256","indexed":false,"internalType":"uint256"}],"anonymous":false},{"type":"event","name":"Initialized","inputs":[{"name":"version","type":"uint64","indexed":false,"internalType":"uint64"}],"anonymous":false},{"type":"event","name":"OwnershipTransferred","inputs":[{"name":"previousOwner","type":"address","indexed":true,"internalType":"address"},{"name":"newOwner","type":"address","indexed":true,"internalType":"address"}],"anonymous":false},{"type":"event","name":"Paused","inputs":[],"anonymous":false},{"type":"event","name":"RefundIssued","inputs":[{"name":"contributor","type":"address","indexed":true,"internalType":"address"},{"name":"amount","type":"uint256","indexed":false,"internalType":"uint256"}],"anonymous":false},{"type":"event","name":"Unpaused","inputs":[],"anonymous":false},{"type":"error","name":"InvalidInitialization","inputs":[]},{"type":"error","name":"NotInitializing","inputs":[]},{"type":"error","name":"OwnableInvalidOwner","inputs":[{"name":"owner","type":"address","internalType":"address"}]},{"type":"error","name":"OwnableUnauthorizedAccount","inputs":[{"name":"account","type":"address","internalType":"address"}]},{"type":"error","name":"ReentrancyGuardReentrantCall","inputs":[]}],"bytecode":{"object":"0x60c06040526001805460ff1916905534801561001a57600080fd5b50604051610d1c380380610d1c83398101604081905261003991610103565b6000821161008e5760405162461bcd60e51b815260206004820152601e60248201527f476f616c206d7573742062652067726561746572207468616e207a65726f000060448201526064015b60405180910390fd5b600081116100e95760405162461bcd60e51b815260206004820152602260248201527f4475726174696f6e206d7573742062652067726561746572207468616e207a65604482015261726f60f01b6064820152608401610085565b60808290526100f88142610127565b60a0525061014e9050565b6000806040838503121561011657600080fd5b505080516020909101519092909150565b8082018082111561014857634e487b7160e01b600052601160045260246000fd5b92915050565b60805160a051610b876101956000396000818160f0015281816102ad015281816105f1015261081901526000818161014c01528181610318015261065c0152610b876000f3fe6080604052600436106100c25760003560e01c80636681b9fd1161007f5780638da5cb5b116100595780638da5cb5b14610205578063b2d5ae4414610232578063d7bb99ba14610247578063f2fde38b1461024f57600080fd5b80636681b9fd146101c5578063715018a6146101db5780638456cb59146101f057600080fd5b806324600fc3146100c757806329dcb0cf146100de5780633f4ba83a14610125578063401938831461013a57806342e94c901461016e5780635c975abb1461019b575b600080fd5b3480156100d357600080fd5b506100dc61026f565b005b3480156100ea57600080fd5b506101127f000000000000000000000000000000000000000000000000000000000000000081565b6040519081526020015b60405180910390f35b34801561013157600080fd5b506100dc61049c565b34801561014657600080fd5b506101127f000000000000000000000000000000000000000000000000000000000000000081565b34801561017a57600080fd5b50610112610189366004610ac0565b60026020526000908152604090205481565b3480156101a757600080fd5b506001546101b59060ff1681565b604051901515815260200161011c565b3480156101d157600080fd5b5061011260005481565b3480156101e757600080fd5b506100dc610522565b3480156101fc57600080fd5b506100dc610534565b34801561021157600080fd5b5061021a610596565b6040516001600160a01b03909116815260200161011c565b34801561023e57600080fd5b506100dc6105c4565b6100dc6107ec565b34801561025b57600080fd5b506100dc61026a366004610ac0565b610971565b6102776109af565b61027f6109e1565b60015460ff16156102ab5760405162461bcd60e51b81526004016102a290610af0565b60405180910390fd5b7f00000000000000000000000000000000000000000000000000000000000000004210156103165760405162461bcd60e51b815260206004820152601860248201527710d85b5c185a59db881a5cc81b9bdd081bdd995c881e595d60421b60448201526064016102a2565b7f000000000000000000000000000000000000000000000000000000000000000060005410156103885760405162461bcd60e51b815260206004820152601860248201527f46756e64696e6720676f616c206e6f742072656163686564000000000000000060448201526064016102a2565b476000610393610596565b6001600160a01b03168260405160006040518083038185875af1925050503d80600081146103dd576040519150601f19603f3d011682016040523d82523d6000602084013e6103e2565b606091505b50509050806104255760405162461bcd60e51b815260206004820152600f60248201526e151c985b9cd9995c8819985a5b1959608a1b60448201526064016102a2565b61042d610596565b6001600160a01b03167feaff4b37086828766ad3268786972c0cd24259d4c87a80f9d3963a3c3d999b0d8360405161046791815260200190565b60405180910390a2505061049a60017f9b779b17422d0df92223018b32b4d1fa46e071723d6817e2486d003becc55f0055565b565b6104a46109af565b60015460ff166104ed5760405162461bcd60e51b815260206004820152601460248201527314185d5cd8589b194e881b9bdd081c185d5cd95960621b60448201526064016102a2565b6001805460ff191690556040517fa45f47fdea8a1efdd9029a5691c7f759c32b7c698632b563573e155625d1693390600090a1565b61052a6109af565b61049a6000610a2b565b61053c6109af565b60015460ff161561055f5760405162461bcd60e51b81526004016102a290610af0565b6001805460ff1916811790556040517f9e87fac88ff661f02d44f95383c817fece4bce600a3dab7a54406878b965e75290600090a1565b7f9016d09d72d40fdae2fd8ceac6b6234c7706214fd39c1cd1e609a0528c199300546001600160a01b031690565b6105cc6109e1565b60015460ff16156105ef5760405162461bcd60e51b81526004016102a290610af0565b7f000000000000000000000000000000000000000000000000000000000000000042101561065a5760405162461bcd60e51b815260206004820152601860248201527710d85b5c185a59db881a5cc81b9bdd081bdd995c881e595d60421b60448201526064016102a2565b7f0000000000000000000000000000000000000000000000000000000000000000600054106106cb5760405162461bcd60e51b815260206004820152601860248201527f46756e64696e6720676f616c207761732072656163686564000000000000000060448201526064016102a2565b33600090815260026020526040902054806107215760405162461bcd60e51b8152602060048201526016602482015275139bc818dbdb9d1c9a589d5d1a5bdb9cc8199bdd5b9960521b60448201526064016102a2565b336000818152600260205260408082208290555190919083908381818185875af1925050503d8060008114610772576040519150601f19603f3d011682016040523d82523d6000602084013e610777565b606091505b50509050806107ba5760405162461bcd60e51b815260206004820152600f60248201526e151c985b9cd9995c8819985a5b1959608a1b60448201526064016102a2565b60405182815233907fa171b6942063c6f2800ce40a780edce37baa2b618571b11eedd1e69e626e7d7690602001610467565b6107f46109e1565b60015460ff16156108175760405162461bcd60e51b81526004016102a290610af0565b7f000000000000000000000000000000000000000000000000000000000000000042106108795760405162461bcd60e51b815260206004820152601060248201526f21b0b6b830b4b3b71034b99037bb32b960811b60448201526064016102a2565b600034116108d85760405162461bcd60e51b815260206004820152602660248201527f436f6e747269627574696f6e206d7573742062652067726561746572207468616044820152656e207a65726f60d01b60648201526084016102a2565b336000908152600260205260409020546108f29034610a9c565b33600090815260026020526040812091909155546109109034610a9c565b60005560405134815233907f1bb460ccaaf70fbacfec17a376f8acbd278c1405590ffcc8ebe4b88daf4f64ad9060200160405180910390a261049a60017f9b779b17422d0df92223018b32b4d1fa46e071723d6817e2486d003becc55f0055565b6109796109af565b6001600160a01b0381166109a357604051631e4fbdf760e01b8152600060048201526024016102a2565b6109ac81610a2b565b50565b336109b8610596565b6001600160a01b03161461049a5760405163118cdaa760e01b81523360048201526024016102a2565b7f9b779b17422d0df92223018b32b4d1fa46e071723d6817e2486d003becc55f00805460011901610a2557604051633ee5aeb560e01b815260040160405180910390fd5b60029055565b7f9016d09d72d40fdae2fd8ceac6b6234c7706214fd39c1cd1e609a0528c19930080546001600160a01b031981166001600160a01b03848116918217845560405192169182907f8be0079c531659141344cd1fd0a4f28419497f9722a3daafe3b4186f6b6457e090600090a3505050565b6000610aa88284610b1a565b905082811015610aba57610aba610b3b565b92915050565b600060208284031215610ad257600080fd5b81356001600160a01b0381168114610ae957600080fd5b9392505050565b60208082526010908201526f14185d5cd8589b194e881c185d5cd95960821b604082015260600190565b80820180821115610aba57634e487b7160e01b600052601160045260246000fd5b634e487b7160e01b600052600160045260246000fdfea26469706673582212205511ba7848890e3d39fed36a25ae9313df6126d74e969daad9cc09cb7347b94a64736f6c63430008170033","linkReferences":{}},"methodIdentifiers":{"contribute()":"d7bb99ba","contributions(address)":"42e94c90","deadline()":"29dcb0cf","fundsRaised()":"6681b9fd","getRefund()":"b2d5ae44","goal()":"40193883","owner()":"8da5cb5b","pause()":"8456cb59","paused()":"5c975abb","renounceOwnership()":"715018a6","transferOwnership(address)":"f2fde38b","unpause()":"3f4ba83a","withdrawFunds()":"24600fc3"},"id":28}